{
  "_format": "hh-sol-artifact-1",
  "contractName": "NFTixBooth",
  "sourceName": "contracts/NFTixBooth.sol",
  "abi": [
    {
      "inputs": [],
      "stateMutability": "nonpayable",
      "type": "constructor"
    },
    {
      "anonymous": false,
      "inputs": [
        {
          "indexed": true,
          "internalType": "address",
          "name": "owner",
          "type": "address"
        },
        {
          "indexed": true,
          "internalType": "address",
          "name": "approved",
          "type": "address"
        },
        {
          "indexed": true,
          "internalType": "uint256",
          "name": "tokenId",
          "type": "uint256"
        }
      ],
      "name": "Approval",
      "type": "event"
    },
    {
      "anonymous": false,
      "inputs": [
        {
          "indexed": true,
          "internalType": "address",
          "name": "owner",
          "type": "address"
        },
        {
          "indexed": true,
          "internalType": "address",
          "name": "operator",
          "type": "address"
        },
        {
          "indexed": false,
          "internalType": "bool",
          "name": "approved",
          "type": "bool"
        }
      ],
      "name": "ApprovalForAll",
      "type": "event"
    },
    {
      "anonymous": false,
      "inputs": [
        {
          "indexed": true,
          "internalType": "address",
          "name": "previousOwner",
          "type": "address"
        },
        {
          "indexed": true,
          "internalType": "address",
          "name": "newOwner",
          "type": "address"
        }
      ],
      "name": "OwnershipTransferred",
      "type": "event"
    },
    {
      "anonymous": false,
      "inputs": [
        {
          "indexed": true,
          "internalType": "address",
          "name": "from",
          "type": "address"
        },
        {
          "indexed": true,
          "internalType": "address",
          "name": "to",
          "type": "address"
        },
        {
          "indexed": true,
          "internalType": "uint256",
          "name": "tokenId",
          "type": "uint256"
        }
      ],
      "name": "Transfer",
      "type": "event"
    },
    {
      "inputs": [
        {
          "internalType": "address",
          "name": "to",
          "type": "address"
        },
        {
          "internalType": "uint256",
          "name": "tokenId",
          "type": "uint256"
        }
      ],
      "name": "approve",
      "outputs": [],
      "stateMutability": "nonpayable",
      "type": "function"
    },
    {
      "inputs": [],
      "name": "availableTicketCount",
      "outputs": [
        {
          "internalType": "uint256",
          "name": "",
          "type": "uint256"
        }
      ],
      "stateMutability": "view",
      "type": "function"
    },
    {
      "inputs": [],
      "name": "availableTickets",
      "outputs": [
        {
          "internalType": "uint256",
          "name": "",
          "type": "uint256"
        }
      ],
      "stateMutability": "view",
      "type": "function"
    },
    {
      "inputs": [
        {
          "internalType": "address",
          "name": "owner",
          "type": "address"
        }
      ],
      "name": "balanceOf",
      "outputs": [
        {
          "internalType": "uint256",
          "name": "",
          "type": "uint256"
        }
      ],
      "stateMutability": "view",
      "type": "function"
    },
    {
      "inputs": [
        {
          "internalType": "address",
          "name": "addy",
          "type": "address"
        }
      ],
      "name": "checkIn",
      "outputs": [],
      "stateMutability": "nonpayable",
      "type": "function"
    },
    {
      "inputs": [
        {
          "internalType": "address",
          "name": "",
          "type": "address"
        }
      ],
      "name": "checkIns",
      "outputs": [
        {
          "internalType": "bool",
          "name": "",
          "type": "bool"
        }
      ],
      "stateMutability": "view",
      "type": "function"
    },
    {
      "inputs": [],
      "name": "closeSale",
      "outputs": [],
      "stateMutability": "nonpayable",
      "type": "function"
    },
    {
      "inputs": [
        {
          "internalType": "address",
          "name": "addy",
          "type": "address"
        }
      ],
      "name": "confirmOwnership",
      "outputs": [
        {
          "internalType": "bool",
          "name": "",
          "type": "bool"
        }
      ],
      "stateMutability": "view",
      "type": "function"
    },
    {
      "inputs": [
        {
          "internalType": "uint256",
          "name": "tokenId",
          "type": "uint256"
        }
      ],
      "name": "getApproved",
      "outputs": [
        {
          "internalType": "address",
          "name": "",
          "type": "address"
        }
      ],
      "stateMutability": "view",
      "type": "function"
    },
    {
      "inputs": [
        {
          "internalType": "address",
          "name": "",
          "type": "address"
        },
        {
          "internalType": "uint256",
          "name": "",
          "type": "uint256"
        }
      ],
      "name": "holderTokenIDs",
      "outputs": [
        {
          "internalType": "uint256",
          "name": "",
          "type": "uint256"
        }
      ],
      "stateMutability": "view",
      "type": "function"
    },
    {
      "inputs": [
        {
          "internalType": "address",
          "name": "owner",
          "type": "address"
        },
        {
          "internalType": "address",
          "name": "operator",
          "type": "address"
        }
      ],
      "name": "isApprovedForAll",
      "outputs": [
        {
          "internalType": "bool",
          "name": "",
          "type": "bool"
        }
      ],
      "stateMutability": "view",
      "type": "function"
    },
    {
      "inputs": [],
      "name": "mint",
      "outputs": [],
      "stateMutability": "payable",
      "type": "function"
    },
    {
      "inputs": [],
      "name": "mintPrice",
      "outputs": [
        {
          "internalType": "uint256",
          "name": "",
          "type": "uint256"
        }
      ],
      "stateMutability": "view",
      "type": "function"
    },
    {
      "inputs": [],
      "name": "name",
      "outputs": [
        {
          "internalType": "string",
          "name": "",
          "type": "string"
        }
      ],
      "stateMutability": "view",
      "type": "function"
    },
    {
      "inputs": [],
      "name": "openSale",
      "outputs": [],
      "stateMutability": "nonpayable",
      "type": "function"
    },
    {
      "inputs": [],
      "name": "owner",
      "outputs": [
        {
          "internalType": "address",
          "name": "",
          "type": "address"
        }
      ],
      "stateMutability": "view",
      "type": "function"
    },
    {
      "inputs": [
        {
          "internalType": "uint256",
          "name": "tokenId",
          "type": "uint256"
        }
      ],
      "name": "ownerOf",
      "outputs": [
        {
          "internalType": "address",
          "name": "",
          "type": "address"
        }
      ],
      "stateMutability": "view",
      "type": "function"
    },
    {
      "inputs": [],
      "name": "renounceOwnership",
      "outputs": [],
      "stateMutability": "nonpayable",
      "type": "function"
    },
    {
      "inputs": [
        {
          "internalType": "address",
          "name": "from",
          "type": "address"
        },
        {
          "internalType": "address",
          "name": "to",
          "type": "address"
        },
        {
          "internalType": "uint256",
          "name": "tokenId",
          "type": "uint256"
        }
      ],
      "name": "safeTransferFrom",
      "outputs": [],
      "stateMutability": "nonpayable",
      "type": "function"
    },
    {
      "inputs": [
        {
          "internalType": "address",
          "name": "from",
          "type": "address"
        },
        {
          "internalType": "address",
          "name": "to",
          "type": "address"
        },
        {
          "internalType": "uint256",
          "name": "tokenId",
          "type": "uint256"
        },
        {
          "internalType": "bytes",
          "name": "_data",
          "type": "bytes"
        }
      ],
      "name": "safeTransferFrom",
      "outputs": [],
      "stateMutability": "nonpayable",
      "type": "function"
    },
    {
      "inputs": [],
      "name": "saleIsActive",
      "outputs": [
        {
          "internalType": "bool",
          "name": "",
          "type": "bool"
        }
      ],
      "stateMutability": "view",
      "type": "function"
    },
    {
      "inputs": [
        {
          "internalType": "address",
          "name": "operator",
          "type": "address"
        },
        {
          "internalType": "bool",
          "name": "approved",
          "type": "bool"
        }
      ],
      "name": "setApprovalForAll",
      "outputs": [],
      "stateMutability": "nonpayable",
      "type": "function"
    },
    {
      "inputs": [
        {
          "internalType": "bytes4",
          "name": "interfaceId",
          "type": "bytes4"
        }
      ],
      "name": "supportsInterface",
      "outputs": [
        {
          "internalType": "bool",
          "name": "",
          "type": "bool"
        }
      ],
      "stateMutability": "view",
      "type": "function"
    },
    {
      "inputs": [],
      "name": "symbol",
      "outputs": [
        {
          "internalType": "string",
          "name": "",
          "type": "string"
        }
      ],
      "stateMutability": "view",
      "type": "function"
    },
    {
      "inputs": [
        {
          "internalType": "uint256",
          "name": "tokenId",
          "type": "uint256"
        }
      ],
      "name": "tokenURI",
      "outputs": [
        {
          "internalType": "string",
          "name": "",
          "type": "string"
        }
      ],
      "stateMutability": "view",
      "type": "function"
    },
    {
      "inputs": [],
      "name": "totalTicketCount",
      "outputs": [
        {
          "internalType": "uint256",
          "name": "",
          "type": "uint256"
        }
      ],
      "stateMutability": "view",
      "type": "function"
    },
    {
      "inputs": [],
      "name": "totalTickets",
      "outputs": [
        {
          "internalType": "uint256",
          "name": "",
          "type": "uint256"
        }
      ],
      "stateMutability": "view",
      "type": "function"
    },
    {
      "inputs": [
        {
          "internalType": "address",
          "name": "from",
          "type": "address"
        },
        {
          "internalType": "address",
          "name": "to",
          "type": "address"
        },
        {
          "internalType": "uint256",
          "name": "tokenId",
          "type": "uint256"
        }
      ],
      "name": "transferFrom",
      "outputs": [],
      "stateMutability": "nonpayable",
      "type": "function"
    },
    {
      "inputs": [
        {
          "internalType": "address",
          "name": "newOwner",
          "type": "address"
        }
      ],
      "name": "transferOwnership",
      "outputs": [],
      "stateMutability": "nonpayable",
      "type": "function"
    }
  ],
  "bytecode": "0x60806040526009805460ff19169055600a808055600b5567011c37937e080000600c553480156200002f57600080fd5b50604080518082018252600581526409c8ca8d2f60db1b60208083019182528351808501909452600484526309c8ca8b60e31b9084015281519192916200007991600091620001c8565b5080516200008f906001906020840190620001c8565b505050620000ac620000a6620000f560201b60201c565b620000f9565b620000c360086200014b60201b62000f8b1760201c565b620000ef620000de60086200015460201b62000f941760201c565b6200015860201b62000f981760201c565b620002ab565b3390565b600780546001600160a01b038381166001600160a01b0319831681179093556040519116919082907f8be0079c531659141344cd1fd0a4f28419497f9722a3daafe3b4186f6b6457e090600090a35050565b80546001019055565b5490565b620001a4816040516024016200017091815260200190565b60408051601f198184030181529190526020810180516001600160e01b0390811663f5b1bba960e01b17909152620001a716565b50565b80516a636f6e736f6c652e6c6f67602083016000808483855afa5050505050565b828054620001d6906200026e565b90600052602060002090601f016020900481019282620001fa576000855562000245565b82601f106200021557805160ff191683800117855562000245565b8280016001018555821562000245579182015b828111156200024557825182559160200191906001019062000228565b506200025392915062000257565b5090565b5b8082111562000253576000815560010162000258565b600181811c908216806200028357607f821691505b60208210811415620002a557634e487b7160e01b600052602260045260246000fd5b50919050565b6122f580620002bb6000396000f3fe6080604052600436106101c25760003560e01c806370a08231116100f7578063b88d4fde11610095578063e985e9c511610064578063e985e9c5146104db578063eb8d244414610524578063ee55efee1461053e578063f2fde38b1461055357600080fd5b8063b88d4fde14610465578063c87b56dd14610485578063d9a59e33146104a5578063dd11247e146104c557600080fd5b806382ac0bb8116100d157806382ac0bb8146103f25780638da5cb5b1461041257806395d89b4114610430578063a22cb4651461044557600080fd5b806370a0823114610385578063715018a6146103a557806380f2abe3146103ba57600080fd5b80631acc9b62116101645780633d721ecd1161013e5780633d721ecd1461031a57806342842e0e1461032f5780636352211e1461034f5780636817c76c1461036f57600080fd5b80631acc9b62146102b457806323b872dd146102e45780633cfa7e011461030457600080fd5b8063095ea7b3116101a0578063095ea7b3146102565780631249c58b1461027857806314558fab14610280578063167ff46f1461029f57600080fd5b806301ffc9a7146101c757806306fdde03146101fc578063081812fc1461021e575b600080fd5b3480156101d357600080fd5b506101e76101e2366004611c8a565b610573565b60405190151581526020015b60405180910390f35b34801561020857600080fd5b506102116105c5565b6040516101f39190612044565b34801561022a57600080fd5b5061023e610239366004611cc2565b610657565b6040516001600160a01b0390911681526020016101f3565b34801561026257600080fd5b50610276610271366004611c61565b6106e4565b005b6102766107fa565b34801561028c57600080fd5b50600a545b6040519081526020016101f3565b3480156102ab57600080fd5b506102766109a7565b3480156102c057600080fd5b506101e76102cf366004611acb565b600e6020526000908152604090205460ff1681565b3480156102f057600080fd5b506102766102ff366004611b17565b6109e0565b34801561031057600080fd5b50610291600b5481565b34801561032657600080fd5b50600b54610291565b34801561033b57600080fd5b5061027661034a366004611b17565b610a11565b34801561035b57600080fd5b5061023e61036a366004611cc2565b610a2c565b34801561037b57600080fd5b50610291600c5481565b34801561039157600080fd5b506102916103a0366004611acb565b610aa3565b3480156103b157600080fd5b50610276610b2a565b3480156103c657600080fd5b506101e76103d5366004611acb565b6001600160a01b03166000908152600d6020526040902054151590565b3480156103fe57600080fd5b5061029161040d366004611c61565b610b60565b34801561041e57600080fd5b506007546001600160a01b031661023e565b34801561043c57600080fd5b50610211610b91565b34801561045157600080fd5b50610276610460366004611c27565b610ba0565b34801561047157600080fd5b50610276610480366004611b52565b610c65565b34801561049157600080fd5b506102116104a0366004611cc2565b610c9d565b3480156104b157600080fd5b506102766104c0366004611acb565b610e14565b3480156104d157600080fd5b50610291600a5481565b3480156104e757600080fd5b506101e76104f6366004611ae5565b6001600160a01b03918216600090815260056020908152604080832093909416825291909152205460ff1690565b34801561053057600080fd5b506009546101e79060ff1681565b34801561054a57600080fd5b50610276610eba565b34801561055f57600080fd5b5061027661056e366004611acb565b610ef0565b60006001600160e01b031982166380ac58cd60e01b14806105a457506001600160e01b03198216635b5e139f60e01b145b806105bf57506301ffc9a760e01b6001600160e01b03198316145b92915050565b6060600080546105d4906121bd565b80601f0160208091040260200160405190810160405280929190818152602001828054610600906121bd565b801561064d5780601f106106225761010080835404028352916020019161064d565b820191906000526020600020905b81548152906001019060200180831161063057829003601f168201915b5050505050905090565b600061066282610fdd565b6106c85760405162461bcd60e51b815260206004820152602c60248201527f4552433732313a20617070726f76656420717565727920666f72206e6f6e657860448201526b34b9ba32b73a103a37b5b2b760a11b60648201526084015b60405180910390fd5b506000908152600460205260409020546001600160a01b031690565b60006106ef82610a2c565b9050806001600160a01b0316836001600160a01b0316141561075d5760405162461bcd60e51b815260206004820152602160248201527f4552433732313a20617070726f76616c20746f2063757272656e74206f776e656044820152603960f91b60648201526084016106bf565b336001600160a01b0382161480610779575061077981336104f6565b6107eb5760405162461bcd60e51b815260206004820152603860248201527f4552433732313a20617070726f76652063616c6c6572206973206e6f74206f7760448201527f6e6572206e6f7220617070726f76656420666f7220616c6c000000000000000060648201526084016106bf565b6107f58383610ffa565b505050565b6000600b54116108415760405162461bcd60e51b81526020600482015260126024820152714e6f7420656e6f756768207469636b65747360701b60448201526064016106bf565b600c543410156108855760405162461bcd60e51b815260206004820152600f60248201526e4e6f7420656e6f756768204554482160881b60448201526064016106bf565b60095460ff166108d75760405162461bcd60e51b815260206004820152601860248201527f5469636b65747320617265206e6f74206f6e2073616c6521000000000000000060448201526064016106bf565b60006109116108ed6108e860085490565b611068565b6040516020016108fd9190611ee3565b604051602081830303815290604052611182565b90506000816040516020016109269190611d7b565b60405160208183030381529060405290506109493361094460085490565b6112f6565b61095b61095560085490565b82611314565b336000908152600d6020526040902060085481546001810183556000928352602090922090910155610991600880546001019055565b6001600b546109a0919061217a565b600b555050565b6007546001600160a01b031633146109d15760405162461bcd60e51b81526004016106bf906120a9565b6009805460ff19166001179055565b6109ea338261139f565b610a065760405162461bcd60e51b81526004016106bf906120de565b6107f5838383611485565b6107f583838360405180602001604052806000815250610c65565b6000818152600260205260408120546001600160a01b0316806105bf5760405162461bcd60e51b815260206004820152602960248201527f4552433732313a206f776e657220717565727920666f72206e6f6e657869737460448201526832b73a103a37b5b2b760b91b60648201526084016106bf565b60006001600160a01b038216610b0e5760405162461bcd60e51b815260206004820152602a60248201527f4552433732313a2062616c616e636520717565727920666f7220746865207a65604482015269726f206164647265737360b01b60648201526084016106bf565b506001600160a01b031660009081526003602052604090205490565b6007546001600160a01b03163314610b545760405162461bcd60e51b81526004016106bf906120a9565b610b5e6000611625565b565b600d6020528160005260406000208181548110610b7c57600080fd5b90600052602060002001600091509150505481565b6060600180546105d4906121bd565b6001600160a01b038216331415610bf95760405162461bcd60e51b815260206004820152601960248201527f4552433732313a20617070726f766520746f2063616c6c65720000000000000060448201526064016106bf565b3360008181526005602090815260408083206001600160a01b03871680855290835292819020805460ff191686151590811790915590519081529192917f17307eab39ab6107e8899845ad3d59bd9653f200f220920489ca2b5937696c31910160405180910390a35050565b610c6f338361139f565b610c8b5760405162461bcd60e51b81526004016106bf906120de565b610c9784848484611677565b50505050565b6060610ca882610fdd565b610d0e5760405162461bcd60e51b815260206004820152603160248201527f45524337323155524953746f726167653a2055524920717565727920666f72206044820152703737b732bc34b9ba32b73a103a37b5b2b760791b60648201526084016106bf565b60008281526006602052604081208054610d27906121bd565b80601f0160208091040260200160405190810160405280929190818152602001828054610d53906121bd565b8015610da05780601f10610d7557610100808354040283529160200191610da0565b820191906000526020600020905b815481529060010190602001808311610d8357829003601f168201915b505050505090506000610dbe60408051602081019091526000815290565b9050805160001415610dd1575092915050565b815115610e03578082604051602001610deb929190611d4c565b60405160208183030381529060405292505050919050565b610e0c846116aa565b949350505050565b6001600160a01b0381166000908152600e60209081526040808320805460ff19166001179055600d909152812080548290610e5f57634e487b7160e01b600052603260045260246000fd5b906000526020600020015490506000610e8a610e7a83611068565b6040516020016108fd9190611dc0565b9050600081604051602001610e9f9190611d7b565b6040516020818303038152906040529050610c978382611314565b6007546001600160a01b03163314610ee45760405162461bcd60e51b81526004016106bf906120a9565b6009805460ff19169055565b6007546001600160a01b03163314610f1a5760405162461bcd60e51b81526004016106bf906120a9565b6001600160a01b038116610f7f5760405162461bcd60e51b815260206004820152602660248201527f4f776e61626c653a206e6577206f776e657220697320746865207a65726f206160448201526564647265737360d01b60648201526084016106bf565b610f8881611625565b50565b80546001019055565b5490565b610f8881604051602401610fae91815260200190565b60408051601f198184030181529190526020810180516001600160e01b031663f5b1bba960e01b179052611782565b6000908152600260205260409020546001600160a01b0316151590565b600081815260046020526040902080546001600160a01b0319166001600160a01b038416908117909155819061102f82610a2c565b6001600160a01b03167f8c5be1e5ebec7d5bd14f71427d1e84f3dd0314c0f7b2291e5b200ac8c7c3b92560405160405180910390a45050565b60608161108c5750506040805180820190915260018152600360fc1b602082015290565b8160005b81156110b657806110a0816121f8565b91506110af9050600a83612147565b9150611090565b60008167ffffffffffffffff8111156110df57634e487b7160e01b600052604160045260246000fd5b6040519080825280601f01601f191660200182016040528015611109576020820181803683370190505b5090505b8415610e0c5761111e60018361217a565b915061112b600a86612213565b61113690603061212f565b60f81b81838151811061115957634e487b7160e01b600052603260045260246000fd5b60200101906001600160f81b031916908160001a90535061117b600a86612147565b945061110d565b8051606090806111a2575050604080516020810190915260008152919050565b600060036111b183600261212f565b6111bb9190612147565b6111c690600461215b565b905060006111d582602061212f565b67ffffffffffffffff8111156111fb57634e487b7160e01b600052604160045260246000fd5b6040519080825280601f01601f191660200182016040528015611225576020820181803683370190505b5090506000604051806060016040528060408152602001612280604091399050600181016020830160005b868110156112b1576003818a01810151603f601282901c8116860151600c83901c8216870151600684901c831688015192909316870151600891821b60ff94851601821b92841692909201901b91160160e01b835260049092019101611250565b5060038606600181146112cb57600281146112dc576112e8565b613d3d60f01b6001198301526112e8565b603d60f81b6000198301525b505050918152949350505050565b6113108282604051806020016040528060008152506117a3565b5050565b61131d82610fdd565b6113805760405162461bcd60e51b815260206004820152602e60248201527f45524337323155524953746f726167653a2055524920736574206f66206e6f6e60448201526d32bc34b9ba32b73a103a37b5b2b760911b60648201526084016106bf565b600082815260066020908152604090912082516107f592840190611a16565b60006113aa82610fdd565b61140b5760405162461bcd60e51b815260206004820152602c60248201527f4552433732313a206f70657261746f7220717565727920666f72206e6f6e657860448201526b34b9ba32b73a103a37b5b2b760a11b60648201526084016106bf565b600061141683610a2c565b9050806001600160a01b0316846001600160a01b031614806114515750836001600160a01b031661144684610657565b6001600160a01b0316145b80610e0c57506001600160a01b0380821660009081526005602090815260408083209388168352929052205460ff16610e0c565b826001600160a01b031661149882610a2c565b6001600160a01b0316146115005760405162461bcd60e51b815260206004820152602960248201527f4552433732313a207472616e73666572206f6620746f6b656e2074686174206960448201526839903737ba1037bbb760b91b60648201526084016106bf565b6001600160a01b0382166115625760405162461bcd60e51b8152602060048201526024808201527f4552433732313a207472616e7366657220746f20746865207a65726f206164646044820152637265737360e01b60648201526084016106bf565b61156d600082610ffa565b6001600160a01b038316600090815260036020526040812080546001929061159690849061217a565b90915550506001600160a01b03821660009081526003602052604081208054600192906115c490849061212f565b909155505060008181526002602052604080822080546001600160a01b0319166001600160a01b0386811691821790925591518493918716917fddf252ad1be2c89b69c2b068fc378daa952ba7f163c4a11628f55a4df523b3ef91a4505050565b600780546001600160a01b038381166001600160a01b0319831681179093556040519116919082907f8be0079c531659141344cd1fd0a4f28419497f9722a3daafe3b4186f6b6457e090600090a35050565b611682848484611485565b61168e848484846117d6565b610c975760405162461bcd60e51b81526004016106bf90612057565b60606116b582610fdd565b6117195760405162461bcd60e51b815260206004820152602f60248201527f4552433732314d657461646174613a2055524920717565727920666f72206e6f60448201526e3732bc34b9ba32b73a103a37b5b2b760891b60648201526084016106bf565b600061173060408051602081019091526000815290565b90506000815111611750576040518060200160405280600081525061177b565b8061175a84611068565b60405160200161176b929190611d4c565b6040516020818303038152906040525b9392505050565b80516a636f6e736f6c652e6c6f67602083016000808483855afa5050505050565b6117ad83836118e3565b6117ba60008484846117d6565b6107f55760405162461bcd60e51b81526004016106bf90612057565b60006001600160a01b0384163b156118d857604051630a85bd0160e11b81526001600160a01b0385169063150b7a029061181a903390899088908890600401612007565b602060405180830381600087803b15801561183457600080fd5b505af1925050508015611864575060408051601f3d908101601f1916820190925261186191810190611ca6565b60015b6118be573d808015611892576040519150601f19603f3d011682016040523d82523d6000602084013e611897565b606091505b5080516118b65760405162461bcd60e51b81526004016106bf90612057565b805181602001fd5b6001600160e01b031916630a85bd0160e11b149050610e0c565b506001949350505050565b6001600160a01b0382166119395760405162461bcd60e51b815260206004820181905260248201527f4552433732313a206d696e7420746f20746865207a65726f206164647265737360448201526064016106bf565b61194281610fdd565b1561198f5760405162461bcd60e51b815260206004820152601c60248201527f4552433732313a20746f6b656e20616c7265616479206d696e7465640000000060448201526064016106bf565b6001600160a01b03821660009081526003602052604081208054600192906119b890849061212f565b909155505060008181526002602052604080822080546001600160a01b0319166001600160a01b03861690811790915590518392907fddf252ad1be2c89b69c2b068fc378daa952ba7f163c4a11628f55a4df523b3ef908290a45050565b828054611a22906121bd565b90600052602060002090601f016020900481019282611a445760008555611a8a565b82601f10611a5d57805160ff1916838001178555611a8a565b82800160010185558215611a8a579182015b82811115611a8a578251825591602001919060010190611a6f565b50611a96929150611a9a565b5090565b5b80821115611a965760008155600101611a9b565b80356001600160a01b0381168114611ac657600080fd5b919050565b600060208284031215611adc578081fd5b61177b82611aaf565b60008060408385031215611af7578081fd5b611b0083611aaf565b9150611b0e60208401611aaf565b90509250929050565b600080600060608486031215611b2b578081fd5b611b3484611aaf565b9250611b4260208501611aaf565b9150604084013590509250925092565b60008060008060808587031215611b67578081fd5b611b7085611aaf565b9350611b7e60208601611aaf565b925060408501359150606085013567ffffffffffffffff80821115611ba1578283fd5b818701915087601f830112611bb4578283fd5b813581811115611bc657611bc6612253565b604051601f8201601f19908116603f01168101908382118183101715611bee57611bee612253565b816040528281528a6020848701011115611c06578586fd5b82602086016020830137918201602001949094529598949750929550505050565b60008060408385031215611c39578182fd5b611c4283611aaf565b915060208301358015158114611c56578182fd5b809150509250929050565b60008060408385031215611c73578182fd5b611c7c83611aaf565b946020939093013593505050565b600060208284031215611c9b578081fd5b813561177b81612269565b600060208284031215611cb7578081fd5b815161177b81612269565b600060208284031215611cd3578081fd5b5035919050565b60008151808452611cf2816020860160208601612191565b601f01601f19169290920160200192915050565b7f222c20226465736372697074696f6e223a202241204e46542d706f77657265648152730103a34b1b5b2ba34b7339039bcb9ba32b69116160651b602082015260340190565b60008351611d5e818460208801612191565b835190830190611d72818360208801612191565b01949350505050565b7f646174613a6170706c69636174696f6e2f6a736f6e3b6261736536342c000000815260008251611db381601d850160208701612191565b91909101601d0192915050565b717b20226e616d65223a20224e46546978202360701b81528151600090611dee816012850160208701612191565b611dfc601282850101611d06565b7f22747261697473223a205b7b202274726169745f74797065223a20224368656381527f6b656420496e222c202276616c7565223a20227472756522207d2c207b20227460208201527f726169745f74797065223a2022507572636861736564222c202276616c75652260408201526c01d10113a393ab291103eae961609d1b60608201527f22696d616765223a2022697066733a2f2f516d54484e6b423356777541643763606d8201527f4c463176567a756d5831386f7366774c4c48694c6736515333366b6758506322608d82015261207d60f01b60ad82015260af01949350505050565b717b20226e616d65223a20224e46546978202360701b81528151600090611f11816012850160208701612191565b611f1f601282850101611d06565b7f22747261697473223a205b7b202274726169745f74797065223a20224368656381527f6b656420496e222c202276616c7565223a202266616c736522207d2c207b202260208201527f74726169745f74797065223a2022507572636861736564222c202276616c756560408201526d0111d10113a393ab291103eae96160951b60608201527f22696d616765223a2022697066733a2f2f516d507755505148464b46765a6a6d606e8201527f79743373616d435154507962326d72366d4e6f754d6338347857647946486a22608e82015261207d60f01b60ae82015260b001949350505050565b6001600160a01b038581168252841660208201526040810183905260806060820181905260009061203a90830184611cda565b9695505050505050565b60208152600061177b6020830184611cda565b60208082526032908201527f4552433732313a207472616e7366657220746f206e6f6e20455243373231526560408201527131b2b4bb32b91034b6b83632b6b2b73a32b960711b606082015260800190565b6020808252818101527f4f776e61626c653a2063616c6c6572206973206e6f7420746865206f776e6572604082015260600190565b60208082526031908201527f4552433732313a207472616e736665722063616c6c6572206973206e6f74206f6040820152701ddb995c881b9bdc88185c1c1c9bdd9959607a1b606082015260800190565b6000821982111561214257612142612227565b500190565b6000826121565761215661223d565b500490565b600081600019048311821515161561217557612175612227565b500290565b60008282101561218c5761218c612227565b500390565b60005b838110156121ac578181015183820152602001612194565b83811115610c975750506000910152565b600181811c908216806121d157607f821691505b602082108114156121f257634e487b7160e01b600052602260045260246000fd5b50919050565b600060001982141561220c5761220c612227565b5060010190565b6000826122225761222261223d565b500690565b634e487b7160e01b600052601160045260246000fd5b634e487b7160e01b600052601260045260246000fd5b634e487b7160e01b600052604160045260246000fd5b6001600160e01b031981168114610f8857600080fdfe4142434445464748494a4b4c4d4e4f505152535455565758595a6162636465666768696a6b6c6d6e6f707172737475767778797a303132333435363738392b2fa26469706673582212200b6b08641366f1cb0d22e2ab8a279194866dd449afd89693dc300bc9a46a48c764736f6c63430008040033",
  "linkReferences": {},
  "deployedLinkReferences": {}
}