{
  "_format": "hh-sol-artifact-1",
  "contractName": "NFTixBooth",
  "sourceName": "contracts/NFTixBooth.sol",
  "abi": [
    {
      "inputs": [],
      "stateMutability": "nonpayable",
      "type": "constructor"
    },
    {
      "anonymous": false,
      "inputs": [
        {
          "indexed": true,
          "internalType": "address",
          "name": "owner",
          "type": "address"
        },
        {
          "indexed": true,
          "internalType": "address",
          "name": "approved",
          "type": "address"
        },
        {
          "indexed": true,
          "internalType": "uint256",
          "name": "tokenId",
          "type": "uint256"
        }
      ],
      "name": "Approval",
      "type": "event"
    },
    {
      "anonymous": false,
      "inputs": [
        {
          "indexed": true,
          "internalType": "address",
          "name": "owner",
          "type": "address"
        },
        {
          "indexed": true,
          "internalType": "address",
          "name": "operator",
          "type": "address"
        },
        {
          "indexed": false,
          "internalType": "bool",
          "name": "approved",
          "type": "bool"
        }
      ],
      "name": "ApprovalForAll",
      "type": "event"
    },
    {
      "anonymous": false,
      "inputs": [
        {
          "indexed": true,
          "internalType": "address",
          "name": "previousOwner",
          "type": "address"
        },
        {
          "indexed": true,
          "internalType": "address",
          "name": "newOwner",
          "type": "address"
        }
      ],
      "name": "OwnershipTransferred",
      "type": "event"
    },
    {
      "anonymous": false,
      "inputs": [
        {
          "indexed": true,
          "internalType": "address",
          "name": "from",
          "type": "address"
        },
        {
          "indexed": true,
          "internalType": "address",
          "name": "to",
          "type": "address"
        },
        {
          "indexed": true,
          "internalType": "uint256",
          "name": "tokenId",
          "type": "uint256"
        }
      ],
      "name": "Transfer",
      "type": "event"
    },
    {
      "inputs": [
        {
          "internalType": "address",
          "name": "to",
          "type": "address"
        },
        {
          "internalType": "uint256",
          "name": "tokenId",
          "type": "uint256"
        }
      ],
      "name": "approve",
      "outputs": [],
      "stateMutability": "nonpayable",
      "type": "function"
    },
    {
      "inputs": [],
      "name": "availableTicketCount",
      "outputs": [
        {
          "internalType": "uint256",
          "name": "",
          "type": "uint256"
        }
      ],
      "stateMutability": "view",
      "type": "function"
    },
    {
      "inputs": [],
      "name": "availableTickets",
      "outputs": [
        {
          "internalType": "uint256",
          "name": "",
          "type": "uint256"
        }
      ],
      "stateMutability": "view",
      "type": "function"
    },
    {
      "inputs": [
        {
          "internalType": "address",
          "name": "owner",
          "type": "address"
        }
      ],
      "name": "balanceOf",
      "outputs": [
        {
          "internalType": "uint256",
          "name": "",
          "type": "uint256"
        }
      ],
      "stateMutability": "view",
      "type": "function"
    },
    {
      "inputs": [
        {
          "internalType": "address",
          "name": "addy",
          "type": "address"
        }
      ],
      "name": "checkIn",
      "outputs": [],
      "stateMutability": "nonpayable",
      "type": "function"
    },
    {
      "inputs": [
        {
          "internalType": "address",
          "name": "",
          "type": "address"
        }
      ],
      "name": "checkIns",
      "outputs": [
        {
          "internalType": "bool",
          "name": "",
          "type": "bool"
        }
      ],
      "stateMutability": "view",
      "type": "function"
    },
    {
      "inputs": [],
      "name": "closeSale",
      "outputs": [],
      "stateMutability": "nonpayable",
      "type": "function"
    },
    {
      "inputs": [
        {
          "internalType": "address",
          "name": "addy",
          "type": "address"
        }
      ],
      "name": "confirmOwnership",
      "outputs": [
        {
          "internalType": "bool",
          "name": "",
          "type": "bool"
        }
      ],
      "stateMutability": "view",
      "type": "function"
    },
    {
      "inputs": [
        {
          "internalType": "uint256",
          "name": "tokenId",
          "type": "uint256"
        }
      ],
      "name": "getApproved",
      "outputs": [
        {
          "internalType": "address",
          "name": "",
          "type": "address"
        }
      ],
      "stateMutability": "view",
      "type": "function"
    },
    {
      "inputs": [
        {
          "internalType": "address",
          "name": "",
          "type": "address"
        },
        {
          "internalType": "uint256",
          "name": "",
          "type": "uint256"
        }
      ],
      "name": "holderTokenIDs",
      "outputs": [
        {
          "internalType": "uint256",
          "name": "",
          "type": "uint256"
        }
      ],
      "stateMutability": "view",
      "type": "function"
    },
    {
      "inputs": [
        {
          "internalType": "address",
          "name": "owner",
          "type": "address"
        },
        {
          "internalType": "address",
          "name": "operator",
          "type": "address"
        }
      ],
      "name": "isApprovedForAll",
      "outputs": [
        {
          "internalType": "bool",
          "name": "",
          "type": "bool"
        }
      ],
      "stateMutability": "view",
      "type": "function"
    },
    {
      "inputs": [],
      "name": "mint",
      "outputs": [],
      "stateMutability": "payable",
      "type": "function"
    },
    {
      "inputs": [],
      "name": "mintPrice",
      "outputs": [
        {
          "internalType": "uint256",
          "name": "",
          "type": "uint256"
        }
      ],
      "stateMutability": "view",
      "type": "function"
    },
    {
      "inputs": [],
      "name": "name",
      "outputs": [
        {
          "internalType": "string",
          "name": "",
          "type": "string"
        }
      ],
      "stateMutability": "view",
      "type": "function"
    },
    {
      "inputs": [],
      "name": "openSale",
      "outputs": [],
      "stateMutability": "nonpayable",
      "type": "function"
    },
    {
      "inputs": [],
      "name": "owner",
      "outputs": [
        {
          "internalType": "address",
          "name": "",
          "type": "address"
        }
      ],
      "stateMutability": "view",
      "type": "function"
    },
    {
      "inputs": [
        {
          "internalType": "uint256",
          "name": "tokenId",
          "type": "uint256"
        }
      ],
      "name": "ownerOf",
      "outputs": [
        {
          "internalType": "address",
          "name": "",
          "type": "address"
        }
      ],
      "stateMutability": "view",
      "type": "function"
    },
    {
      "inputs": [],
      "name": "renounceOwnership",
      "outputs": [],
      "stateMutability": "nonpayable",
      "type": "function"
    },
    {
      "inputs": [
        {
          "internalType": "address",
          "name": "from",
          "type": "address"
        },
        {
          "internalType": "address",
          "name": "to",
          "type": "address"
        },
        {
          "internalType": "uint256",
          "name": "tokenId",
          "type": "uint256"
        }
      ],
      "name": "safeTransferFrom",
      "outputs": [],
      "stateMutability": "nonpayable",
      "type": "function"
    },
    {
      "inputs": [
        {
          "internalType": "address",
          "name": "from",
          "type": "address"
        },
        {
          "internalType": "address",
          "name": "to",
          "type": "address"
        },
        {
          "internalType": "uint256",
          "name": "tokenId",
          "type": "uint256"
        },
        {
          "internalType": "bytes",
          "name": "_data",
          "type": "bytes"
        }
      ],
      "name": "safeTransferFrom",
      "outputs": [],
      "stateMutability": "nonpayable",
      "type": "function"
    },
    {
      "inputs": [],
      "name": "saleIsActive",
      "outputs": [
        {
          "internalType": "bool",
          "name": "",
          "type": "bool"
        }
      ],
      "stateMutability": "view",
      "type": "function"
    },
    {
      "inputs": [
        {
          "internalType": "address",
          "name": "operator",
          "type": "address"
        },
        {
          "internalType": "bool",
          "name": "approved",
          "type": "bool"
        }
      ],
      "name": "setApprovalForAll",
      "outputs": [],
      "stateMutability": "nonpayable",
      "type": "function"
    },
    {
      "inputs": [
        {
          "internalType": "bytes4",
          "name": "interfaceId",
          "type": "bytes4"
        }
      ],
      "name": "supportsInterface",
      "outputs": [
        {
          "internalType": "bool",
          "name": "",
          "type": "bool"
        }
      ],
      "stateMutability": "view",
      "type": "function"
    },
    {
      "inputs": [],
      "name": "symbol",
      "outputs": [
        {
          "internalType": "string",
          "name": "",
          "type": "string"
        }
      ],
      "stateMutability": "view",
      "type": "function"
    },
    {
      "inputs": [
        {
          "internalType": "uint256",
          "name": "tokenId",
          "type": "uint256"
        }
      ],
      "name": "tokenURI",
      "outputs": [
        {
          "internalType": "string",
          "name": "",
          "type": "string"
        }
      ],
      "stateMutability": "view",
      "type": "function"
    },
    {
      "inputs": [],
      "name": "totalTicketCount",
      "outputs": [
        {
          "internalType": "uint256",
          "name": "",
          "type": "uint256"
        }
      ],
      "stateMutability": "view",
      "type": "function"
    },
    {
      "inputs": [],
      "name": "totalTickets",
      "outputs": [
        {
          "internalType": "uint256",
          "name": "",
          "type": "uint256"
        }
      ],
      "stateMutability": "view",
      "type": "function"
    },
    {
      "inputs": [
        {
          "internalType": "address",
          "name": "from",
          "type": "address"
        },
        {
          "internalType": "address",
          "name": "to",
          "type": "address"
        },
        {
          "internalType": "uint256",
          "name": "tokenId",
          "type": "uint256"
        }
      ],
      "name": "transferFrom",
      "outputs": [],
      "stateMutability": "nonpayable",
      "type": "function"
    },
    {
      "inputs": [
        {
          "internalType": "address",
          "name": "newOwner",
          "type": "address"
        }
      ],
      "name": "transferOwnership",
      "outputs": [],
      "stateMutability": "nonpayable",
      "type": "function"
    }
  ],
  "bytecode": "0x60806040526009805460ff19169055600a808055600b5567011c37937e080000600c553480156200002f57600080fd5b50604080518082018252600581526409c8ca8d2f60db1b60208083019182528351808501909452600484526309c8ca8b60e31b9084015281519192916200007991600091620001c8565b5080516200008f906001906020840190620001c8565b505050620000ac620000a6620000f560201b60201c565b620000f9565b620000c360086200014b60201b620011ff1760201c565b620000ef620000de60086200015460201b620012081760201c565b6200015860201b6200120c1760201c565b620002ab565b3390565b600780546001600160a01b038381166001600160a01b0319831681179093556040519116919082907f8be0079c531659141344cd1fd0a4f28419497f9722a3daafe3b4186f6b6457e090600090a35050565b80546001019055565b5490565b620001a4816040516024016200017091815260200190565b60408051601f198184030181529190526020810180516001600160e01b0390811663f5b1bba960e01b17909152620001a716565b50565b80516a636f6e736f6c652e6c6f67602083016000808483855afa5050505050565b828054620001d6906200026e565b90600052602060002090601f016020900481019282620001fa576000855562000245565b82601f106200021557805160ff191683800117855562000245565b8280016001018555821562000245579182015b828111156200024557825182559160200191906001019062000228565b506200025392915062000257565b5090565b5b8082111562000253576000815560010162000258565b600181811c908216806200028357607f821691505b60208210811415620002a557634e487b7160e01b600052602260045260246000fd5b50919050565b61268980620002bb6000396000f3fe6080604052600436106101c25760003560e01c806370a08231116100f7578063b88d4fde11610095578063e985e9c511610064578063e985e9c5146104db578063eb8d244414610524578063ee55efee1461053e578063f2fde38b1461055357600080fd5b8063b88d4fde14610465578063c87b56dd14610485578063d9a59e33146104a5578063dd11247e146104c557600080fd5b806382ac0bb8116100d157806382ac0bb8146103f25780638da5cb5b1461041257806395d89b4114610430578063a22cb4651461044557600080fd5b806370a0823114610385578063715018a6146103a557806380f2abe3146103ba57600080fd5b80631acc9b62116101645780633d721ecd1161013e5780633d721ecd1461031a57806342842e0e1461032f5780636352211e1461034f5780636817c76c1461036f57600080fd5b80631acc9b62146102b457806323b872dd146102e45780633cfa7e011461030457600080fd5b8063095ea7b3116101a0578063095ea7b3146102565780631249c58b1461027857806314558fab14610280578063167ff46f1461029f57600080fd5b806301ffc9a7146101c757806306fdde03146101fc578063081812fc1461021e575b600080fd5b3480156101d357600080fd5b506101e76101e2366004611f82565b610573565b60405190151581526020015b60405180910390f35b34801561020857600080fd5b506102116105c5565b6040516101f3919061238d565b34801561022a57600080fd5b5061023e610239366004611fba565b610657565b6040516001600160a01b0390911681526020016101f3565b34801561026257600080fd5b50610276610271366004611f59565b6106e4565b005b6102766107fa565b34801561028c57600080fd5b50600a545b6040519081526020016101f3565b3480156102ab57600080fd5b50610276610a49565b3480156102c057600080fd5b506101e76102cf366004611dc3565b600e6020526000908152604090205460ff1681565b3480156102f057600080fd5b506102766102ff366004611e0f565b610a82565b34801561031057600080fd5b50610291600b5481565b34801561032657600080fd5b50600b54610291565b34801561033b57600080fd5b5061027661034a366004611e0f565b610ab3565b34801561035b57600080fd5b5061023e61036a366004611fba565b610ace565b34801561037b57600080fd5b50610291600c5481565b34801561039157600080fd5b506102916103a0366004611dc3565b610b45565b3480156103b157600080fd5b50610276610bcc565b3480156103c657600080fd5b506101e76103d5366004611dc3565b6001600160a01b03166000908152600d6020526040902054151590565b3480156103fe57600080fd5b5061029161040d366004611f59565b610c02565b34801561041e57600080fd5b506007546001600160a01b031661023e565b34801561043c57600080fd5b50610211610c33565b34801561045157600080fd5b50610276610460366004611f1f565b610c42565b34801561047157600080fd5b50610276610480366004611e4a565b610d07565b34801561049157600080fd5b506102116104a0366004611fba565b610d3f565b3480156104b157600080fd5b506102766104c0366004611dc3565b610eb6565b3480156104d157600080fd5b50610291600a5481565b3480156104e757600080fd5b506101e76104f6366004611ddd565b6001600160a01b03918216600090815260056020908152604080832093909416825291909152205460ff1690565b34801561053057600080fd5b506009546101e79060ff1681565b34801561054a57600080fd5b5061027661112e565b34801561055f57600080fd5b5061027661056e366004611dc3565b611164565b60006001600160e01b031982166380ac58cd60e01b14806105a457506001600160e01b03198216635b5e139f60e01b145b806105bf57506301ffc9a760e01b6001600160e01b03198316145b92915050565b6060600080546105d490612506565b80601f016020809104026020016040519081016040528092919081815260200182805461060090612506565b801561064d5780601f106106225761010080835404028352916020019161064d565b820191906000526020600020905b81548152906001019060200180831161063057829003601f168201915b5050505050905090565b600061066282611251565b6106c85760405162461bcd60e51b815260206004820152602c60248201527f4552433732313a20617070726f76656420717565727920666f72206e6f6e657860448201526b34b9ba32b73a103a37b5b2b760a11b60648201526084015b60405180910390fd5b506000908152600460205260409020546001600160a01b031690565b60006106ef82610ace565b9050806001600160a01b0316836001600160a01b0316141561075d5760405162461bcd60e51b815260206004820152602160248201527f4552433732313a20617070726f76616c20746f2063757272656e74206f776e656044820152603960f91b60648201526084016106bf565b336001600160a01b0382161480610779575061077981336104f6565b6107eb5760405162461bcd60e51b815260206004820152603860248201527f4552433732313a20617070726f76652063616c6c6572206973206e6f74206f7760448201527f6e6572206e6f7220617070726f76656420666f7220616c6c000000000000000060648201526084016106bf565b6107f5838361126e565b505050565b6000600b54116108415760405162461bcd60e51b81526020600482015260126024820152714e6f7420656e6f756768207469636b65747360701b60448201526064016106bf565b600c543410156108855760405162461bcd60e51b815260206004820152600f60248201526e4e6f7420656e6f756768204554482160881b60448201526064016106bf565b60095460ff166108d75760405162461bcd60e51b815260206004820152601860248201527f5469636b65747320617265206e6f74206f6e2073616c6521000000000000000060448201526064016106bf565b6108df611ccd565b6040518060800160405280604b81526020016125c9604b9139815260085461090b906112dc565b6112dc565b6020828101918252604080518082018252600d81526c1e17ba32bc3a1f1e17b9bb339f60991b818401528185018190528451935191516000946109529490939291016120a9565b6040516020818303038152906040529050600061096e826113f6565b90506109798161156a565b60006109b061098a61090660085490565b8360405160200161099c929190612280565b6040516020818303038152906040526113f6565b90506000816040516020016109c59190612143565b60405160208183030381529060405290506109e8336109e360085490565b6115ad565b6109fa6109f460085490565b826115cb565b336000908152600d6020526040902060085481546001810183556000928352602090922090910155610a30600880546001019055565b6001600b54610a3f91906124c3565b600b555050505050565b6007546001600160a01b03163314610a735760405162461bcd60e51b81526004016106bf906123f2565b6009805460ff19166001179055565b610a8c3382611656565b610aa85760405162461bcd60e51b81526004016106bf90612427565b6107f583838361173c565b6107f583838360405180602001604052806000815250610d07565b6000818152600260205260408120546001600160a01b0316806105bf5760405162461bcd60e51b815260206004820152602960248201527f4552433732313a206f776e657220717565727920666f72206e6f6e657869737460448201526832b73a103a37b5b2b760b91b60648201526084016106bf565b60006001600160a01b038216610bb05760405162461bcd60e51b815260206004820152602a60248201527f4552433732313a2062616c616e636520717565727920666f7220746865207a65604482015269726f206164647265737360b01b60648201526084016106bf565b506001600160a01b031660009081526003602052604090205490565b6007546001600160a01b03163314610bf65760405162461bcd60e51b81526004016106bf906123f2565b610c0060006118dc565b565b600d6020528160005260406000208181548110610c1e57600080fd5b90600052602060002001600091509150505481565b6060600180546105d490612506565b6001600160a01b038216331415610c9b5760405162461bcd60e51b815260206004820152601960248201527f4552433732313a20617070726f766520746f2063616c6c65720000000000000060448201526064016106bf565b3360008181526005602090815260408083206001600160a01b03871680855290835292819020805460ff191686151590811790915590519081529192917f17307eab39ab6107e8899845ad3d59bd9653f200f220920489ca2b5937696c31910160405180910390a35050565b610d113383611656565b610d2d5760405162461bcd60e51b81526004016106bf90612427565b610d398484848461192e565b50505050565b6060610d4a82611251565b610db05760405162461bcd60e51b815260206004820152603160248201527f45524337323155524953746f726167653a2055524920717565727920666f72206044820152703737b732bc34b9ba32b73a103a37b5b2b760791b60648201526084016106bf565b60008281526006602052604081208054610dc990612506565b80601f0160208091040260200160405190810160405280929190818152602001828054610df590612506565b8015610e425780601f10610e1757610100808354040283529160200191610e42565b820191906000526020600020905b815481529060010190602001808311610e2557829003601f168201915b505050505090506000610e6060408051602081019091526000815290565b9050805160001415610e73575092915050565b815115610ea5578082604051602001610e8d92919061207a565b60405160208183030381529060405292505050919050565b610eae84611961565b949350505050565b6001600160a01b0381166000908152600e602052604090205460ff16151560011415610f2e5760405162461bcd60e51b815260206004820152602160248201527f557365722068617320616c7265616479206265656e20636865636b656420696e6044820152602160f81b60648201526084016106bf565b6001600160a01b0381166000908152600e60209081526040808320805460ff19166001179055600d825280832080548251818502810185019093528083529192909190830182828015610fa057602002820191906000526020600020905b815481526020019060010190808311610f8c575b50505050509050610faf611cf4565b6040518060800160405280604b81526020016125c9604b913981528151610ffc908390600090610fef57634e487b7160e01b600052603260045260246000fd5b60200260200101516112dc565b6020828101918252604080518082018252600c81526b20434845434b454420494e2160a01b8184015281850190815281518083018352600d81526c1e17ba32bc3a1f1e17b9bb339f60991b8185015260608601819052855194519151925160009561106b9590949291016120ec565b60405160208183030381529060405290506000611087826113f6565b90506110928161156a565b60006110cd6110bb86600081518110610fef57634e487b7160e01b600052603260045260246000fd5b8360405160200161099c929190612188565b90506000816040516020016110e29190612143565b60405160208183030381529060405290506111258660008151811061111757634e487b7160e01b600052603260045260246000fd5b6020026020010151826115cb565b50505050505050565b6007546001600160a01b031633146111585760405162461bcd60e51b81526004016106bf906123f2565b6009805460ff19169055565b6007546001600160a01b0316331461118e5760405162461bcd60e51b81526004016106bf906123f2565b6001600160a01b0381166111f35760405162461bcd60e51b815260206004820152602660248201527f4f776e61626c653a206e6577206f776e657220697320746865207a65726f206160448201526564647265737360d01b60648201526084016106bf565b6111fc816118dc565b50565b80546001019055565b5490565b6111fc8160405160240161122291815260200190565b60408051601f198184030181529190526020810180516001600160e01b031663f5b1bba960e01b179052611a39565b6000908152600260205260409020546001600160a01b0316151590565b600081815260046020526040902080546001600160a01b0319166001600160a01b03841690811790915581906112a382610ace565b6001600160a01b03167f8c5be1e5ebec7d5bd14f71427d1e84f3dd0314c0f7b2291e5b200ac8c7c3b92560405160405180910390a45050565b6060816113005750506040805180820190915260018152600360fc1b602082015290565b8160005b811561132a578061131481612541565b91506113239050600a83612490565b9150611304565b60008167ffffffffffffffff81111561135357634e487b7160e01b600052604160045260246000fd5b6040519080825280601f01601f19166020018201604052801561137d576020820181803683370190505b5090505b8415610eae576113926001836124c3565b915061139f600a8661255c565b6113aa906030612478565b60f81b8183815181106113cd57634e487b7160e01b600052603260045260246000fd5b60200101906001600160f81b031916908160001a9053506113ef600a86612490565b9450611381565b805160609080611416575050604080516020810190915260008152919050565b60006003611425836002612478565b61142f9190612490565b61143a9060046124a4565b90506000611449826020612478565b67ffffffffffffffff81111561146f57634e487b7160e01b600052604160045260246000fd5b6040519080825280601f01601f191660200182016040528015611499576020820181803683370190505b5090506000604051806060016040528060408152602001612614604091399050600181016020830160005b86811015611525576003818a01810151603f601282901c8116860151600c83901c8216870151600684901c831688015192909316870151600891821b60ff94851601821b92841692909201901b91160160e01b8352600490920191016114c4565b50600386066001811461153f57600281146115505761155c565b613d3d60f01b60011983015261155c565b603d60f81b6000198301525b505050918152949350505050565b6111fc8160405160240161157e919061238d565b60408051601f198184030181529190526020810180516001600160e01b031663104c13eb60e21b179052611a39565b6115c7828260405180602001604052806000815250611a5a565b5050565b6115d482611251565b6116375760405162461bcd60e51b815260206004820152602e60248201527f45524337323155524953746f726167653a2055524920736574206f66206e6f6e60448201526d32bc34b9ba32b73a103a37b5b2b760911b60648201526084016106bf565b600082815260066020908152604090912082516107f592840190611d0e565b600061166182611251565b6116c25760405162461bcd60e51b815260206004820152602c60248201527f4552433732313a206f70657261746f7220717565727920666f72206e6f6e657860448201526b34b9ba32b73a103a37b5b2b760a11b60648201526084016106bf565b60006116cd83610ace565b9050806001600160a01b0316846001600160a01b031614806117085750836001600160a01b03166116fd84610657565b6001600160a01b0316145b80610eae57506001600160a01b0380821660009081526005602090815260408083209388168352929052205460ff16610eae565b826001600160a01b031661174f82610ace565b6001600160a01b0316146117b75760405162461bcd60e51b815260206004820152602960248201527f4552433732313a207472616e73666572206f6620746f6b656e2074686174206960448201526839903737ba1037bbb760b91b60648201526084016106bf565b6001600160a01b0382166118195760405162461bcd60e51b8152602060048201526024808201527f4552433732313a207472616e7366657220746f20746865207a65726f206164646044820152637265737360e01b60648201526084016106bf565b61182460008261126e565b6001600160a01b038316600090815260036020526040812080546001929061184d9084906124c3565b90915550506001600160a01b038216600090815260036020526040812080546001929061187b908490612478565b909155505060008181526002602052604080822080546001600160a01b0319166001600160a01b0386811691821790925591518493918716917fddf252ad1be2c89b69c2b068fc378daa952ba7f163c4a11628f55a4df523b3ef91a4505050565b600780546001600160a01b038381166001600160a01b0319831681179093556040519116919082907f8be0079c531659141344cd1fd0a4f28419497f9722a3daafe3b4186f6b6457e090600090a35050565b61193984848461173c565b61194584848484611a8d565b610d395760405162461bcd60e51b81526004016106bf906123a0565b606061196c82611251565b6119d05760405162461bcd60e51b815260206004820152602f60248201527f4552433732314d657461646174613a2055524920717565727920666f72206e6f60448201526e3732bc34b9ba32b73a103a37b5b2b760891b60648201526084016106bf565b60006119e760408051602081019091526000815290565b90506000815111611a075760405180602001604052806000815250611a32565b80611a11846112dc565b604051602001611a2292919061207a565b6040516020818303038152906040525b9392505050565b80516a636f6e736f6c652e6c6f67602083016000808483855afa5050505050565b611a648383611b9a565b611a716000848484611a8d565b6107f55760405162461bcd60e51b81526004016106bf906123a0565b60006001600160a01b0384163b15611b8f57604051630a85bd0160e11b81526001600160a01b0385169063150b7a0290611ad1903390899088908890600401612350565b602060405180830381600087803b158015611aeb57600080fd5b505af1925050508015611b1b575060408051601f3d908101601f19168201909252611b1891810190611f9e565b60015b611b75573d808015611b49576040519150601f19603f3d011682016040523d82523d6000602084013e611b4e565b606091505b508051611b6d5760405162461bcd60e51b81526004016106bf906123a0565b805181602001fd5b6001600160e01b031916630a85bd0160e11b149050610eae565b506001949350505050565b6001600160a01b038216611bf05760405162461bcd60e51b815260206004820181905260248201527f4552433732313a206d696e7420746f20746865207a65726f206164647265737360448201526064016106bf565b611bf981611251565b15611c465760405162461bcd60e51b815260206004820152601c60248201527f4552433732313a20746f6b656e20616c7265616479206d696e7465640000000060448201526064016106bf565b6001600160a01b0382166000908152600360205260408120805460019290611c6f908490612478565b909155505060008181526002602052604080822080546001600160a01b0319166001600160a01b03861690811790915590518392907fddf252ad1be2c89b69c2b068fc378daa952ba7f163c4a11628f55a4df523b3ef908290a45050565b60405180606001604052806003905b6060815260200190600190039081611cdc5790505090565b604080516080810190915260608152600360208201611cdc565b828054611d1a90612506565b90600052602060002090601f016020900481019282611d3c5760008555611d82565b82601f10611d5557805160ff1916838001178555611d82565b82800160010185558215611d82579182015b82811115611d82578251825591602001919060010190611d67565b50611d8e929150611d92565b5090565b5b80821115611d8e5760008155600101611d93565b80356001600160a01b0381168114611dbe57600080fd5b919050565b600060208284031215611dd4578081fd5b611a3282611da7565b60008060408385031215611def578081fd5b611df883611da7565b9150611e0660208401611da7565b90509250929050565b600080600060608486031215611e23578081fd5b611e2c84611da7565b9250611e3a60208501611da7565b9150604084013590509250925092565b60008060008060808587031215611e5f578081fd5b611e6885611da7565b9350611e7660208601611da7565b925060408501359150606085013567ffffffffffffffff80821115611e99578283fd5b818701915087601f830112611eac578283fd5b813581811115611ebe57611ebe61259c565b604051601f8201601f19908116603f01168101908382118183101715611ee657611ee661259c565b816040528281528a6020848701011115611efe578586fd5b82602086016020830137918201602001949094529598949750929550505050565b60008060408385031215611f31578182fd5b611f3a83611da7565b915060208301358015158114611f4e578182fd5b809150509250929050565b60008060408385031215611f6b578182fd5b611f7483611da7565b946020939093013593505050565b600060208284031215611f93578081fd5b8135611a32816125b2565b600060208284031215611faf578081fd5b8151611a32816125b2565b600060208284031215611fcb578081fd5b5035919050565b60008151808452611fea8160208601602086016124da565b601f01601f19169290920160200192915050565b7f22696d616765223a2022646174613a696d6167652f7376672b786d6c3b626173815263194d8d0b60e21b602082015260240190565b7f222c20226465736372697074696f6e223a202241204e46542d706f77657265648152730103a34b1b5b2ba34b7339039bcb9ba32b69116160651b602082015260340190565b6000835161208c8184602088016124da565b8351908301906120a08183602088016124da565b01949350505050565b600084516120bb8184602089016124da565b8451908301906120cf8183602089016124da565b84519101906120e28183602088016124da565b0195945050505050565b600085516120fe818460208a016124da565b855190830190612112818360208a016124da565b85519101906121258183602089016124da565b84519101906121388183602088016124da565b019695505050505050565b7f646174613a6170706c69636174696f6e2f6a736f6e3b6261736536342c00000081526000825161217b81601d8501602087016124da565b91909101601d0192915050565b717b20226e616d65223a20224e46546978202360701b815282516000906121b68160128501602088016124da565b6121c4601282850101612034565b7f22747261697473223a205b7b202274726169745f74797065223a20224368656381527f6b656420496e222c202276616c7565223a20227472756522207d2c207b20227460208201527f726169745f74797065223a2022507572636861736564222c202276616c75652260408201526c01d10113a393ab291103eae961609d1b60608201529050612257606d8201611ffe565b905083516122698183602088016124da565b6222207d60e81b9101908152600301949350505050565b717b20226e616d65223a20224e46546978202360701b815282516000906122ae8160128501602088016124da565b6122bc601282850101612034565b7f22747261697473223a205b7b202274726169745f74797065223a20224368656381527f6b656420496e222c202276616c7565223a202266616c736522207d2c207b202260208201527f74726169745f74797065223a2022507572636861736564222c202276616c756560408201526d0111d10113a393ab291103eae96160951b60608201529050612257606e8201611ffe565b6001600160a01b038581168252841660208201526040810183905260806060820181905260009061238390830184611fd2565b9695505050505050565b602081526000611a326020830184611fd2565b60208082526032908201527f4552433732313a207472616e7366657220746f206e6f6e20455243373231526560408201527131b2b4bb32b91034b6b83632b6b2b73a32b960711b606082015260800190565b6020808252818101527f4f776e61626c653a2063616c6c6572206973206e6f7420746865206f776e6572604082015260600190565b60208082526031908201527f4552433732313a207472616e736665722063616c6c6572206973206e6f74206f6040820152701ddb995c881b9bdc88185c1c1c9bdd9959607a1b606082015260800190565b6000821982111561248b5761248b612570565b500190565b60008261249f5761249f612586565b500490565b60008160001904831182151516156124be576124be612570565b500290565b6000828210156124d5576124d5612570565b500390565b60005b838110156124f55781810151838201526020016124dd565b83811115610d395750506000910152565b600181811c9082168061251a57607f821691505b6020821081141561253b57634e487b7160e01b600052602260045260246000fd5b50919050565b600060001982141561255557612555612570565b5060010190565b60008261256b5761256b612586565b500690565b634e487b7160e01b600052601160045260246000fd5b634e487b7160e01b600052601260045260246000fd5b634e487b7160e01b600052604160045260246000fd5b6001600160e01b0319811681146111fc57600080fdfe3c7376672076696577426f783d2230203020313030203130302220786d6c6e733d22687474703a2f2f7777772e77332e6f72672f323030302f737667223e3c7465787420793d223530223e4142434445464748494a4b4c4d4e4f505152535455565758595a6162636465666768696a6b6c6d6e6f707172737475767778797a303132333435363738392b2fa2646970667358221220ddaa350bdd082a926a7527ee68df902a6f3703414d0a24d049b671d3b50ee50a64736f6c63430008040033",
  "linkReferences": {},
  "deployedLinkReferences": {}
}