{
  "_format": "hh-sol-artifact-1",
  "contractName": "YourContract",
  "sourceName": "contracts/YourContract.sol",
  "abi": [
    {
      "inputs": [],
      "stateMutability": "nonpayable",
      "type": "constructor"
    },
    {
      "anonymous": false,
      "inputs": [
        {
          "indexed": true,
          "internalType": "address",
          "name": "owner",
          "type": "address"
        },
        {
          "indexed": true,
          "internalType": "address",
          "name": "approved",
          "type": "address"
        },
        {
          "indexed": true,
          "internalType": "uint256",
          "name": "tokenId",
          "type": "uint256"
        }
      ],
      "name": "Approval",
      "type": "event"
    },
    {
      "anonymous": false,
      "inputs": [
        {
          "indexed": true,
          "internalType": "address",
          "name": "owner",
          "type": "address"
        },
        {
          "indexed": true,
          "internalType": "address",
          "name": "operator",
          "type": "address"
        },
        {
          "indexed": false,
          "internalType": "bool",
          "name": "approved",
          "type": "bool"
        }
      ],
      "name": "ApprovalForAll",
      "type": "event"
    },
    {
      "anonymous": false,
      "inputs": [
        {
          "indexed": true,
          "internalType": "address",
          "name": "previousOwner",
          "type": "address"
        },
        {
          "indexed": true,
          "internalType": "address",
          "name": "newOwner",
          "type": "address"
        }
      ],
      "name": "OwnershipTransferred",
      "type": "event"
    },
    {
      "anonymous": false,
      "inputs": [
        {
          "indexed": true,
          "internalType": "address",
          "name": "from",
          "type": "address"
        },
        {
          "indexed": true,
          "internalType": "address",
          "name": "to",
          "type": "address"
        },
        {
          "indexed": true,
          "internalType": "uint256",
          "name": "tokenId",
          "type": "uint256"
        }
      ],
      "name": "Transfer",
      "type": "event"
    },
    {
      "inputs": [
        {
          "internalType": "address",
          "name": "to",
          "type": "address"
        },
        {
          "internalType": "uint256",
          "name": "tokenId",
          "type": "uint256"
        }
      ],
      "name": "approve",
      "outputs": [],
      "stateMutability": "nonpayable",
      "type": "function"
    },
    {
      "inputs": [],
      "name": "availableTickets",
      "outputs": [
        {
          "internalType": "uint256",
          "name": "",
          "type": "uint256"
        }
      ],
      "stateMutability": "view",
      "type": "function"
    },
    {
      "inputs": [
        {
          "internalType": "address",
          "name": "owner",
          "type": "address"
        }
      ],
      "name": "balanceOf",
      "outputs": [
        {
          "internalType": "uint256",
          "name": "",
          "type": "uint256"
        }
      ],
      "stateMutability": "view",
      "type": "function"
    },
    {
      "inputs": [
        {
          "internalType": "address",
          "name": "ticketHolder",
          "type": "address"
        }
      ],
      "name": "checkIn",
      "outputs": [],
      "stateMutability": "nonpayable",
      "type": "function"
    },
    {
      "inputs": [
        {
          "internalType": "address",
          "name": "",
          "type": "address"
        }
      ],
      "name": "checkIns",
      "outputs": [
        {
          "internalType": "bool",
          "name": "",
          "type": "bool"
        }
      ],
      "stateMutability": "view",
      "type": "function"
    },
    {
      "inputs": [
        {
          "internalType": "address",
          "name": "addy",
          "type": "address"
        }
      ],
      "name": "checkOwnership",
      "outputs": [
        {
          "internalType": "uint256[]",
          "name": "",
          "type": "uint256[]"
        }
      ],
      "stateMutability": "view",
      "type": "function"
    },
    {
      "inputs": [],
      "name": "checkedIn",
      "outputs": [
        {
          "internalType": "bool",
          "name": "",
          "type": "bool"
        }
      ],
      "stateMutability": "view",
      "type": "function"
    },
    {
      "inputs": [],
      "name": "closeSale",
      "outputs": [],
      "stateMutability": "nonpayable",
      "type": "function"
    },
    {
      "inputs": [
        {
          "internalType": "uint256",
          "name": "tokenId",
          "type": "uint256"
        }
      ],
      "name": "getApproved",
      "outputs": [
        {
          "internalType": "address",
          "name": "",
          "type": "address"
        }
      ],
      "stateMutability": "view",
      "type": "function"
    },
    {
      "inputs": [],
      "name": "getAvailableTicketCount",
      "outputs": [
        {
          "internalType": "uint256",
          "name": "",
          "type": "uint256"
        }
      ],
      "stateMutability": "view",
      "type": "function"
    },
    {
      "inputs": [],
      "name": "getTotalTicketCount",
      "outputs": [
        {
          "internalType": "uint256",
          "name": "",
          "type": "uint256"
        }
      ],
      "stateMutability": "view",
      "type": "function"
    },
    {
      "inputs": [
        {
          "internalType": "address",
          "name": "",
          "type": "address"
        },
        {
          "internalType": "uint256",
          "name": "",
          "type": "uint256"
        }
      ],
      "name": "holderTokenIDs",
      "outputs": [
        {
          "internalType": "uint256",
          "name": "",
          "type": "uint256"
        }
      ],
      "stateMutability": "view",
      "type": "function"
    },
    {
      "inputs": [
        {
          "internalType": "address",
          "name": "owner",
          "type": "address"
        },
        {
          "internalType": "address",
          "name": "operator",
          "type": "address"
        }
      ],
      "name": "isApprovedForAll",
      "outputs": [
        {
          "internalType": "bool",
          "name": "",
          "type": "bool"
        }
      ],
      "stateMutability": "view",
      "type": "function"
    },
    {
      "inputs": [
        {
          "internalType": "uint256",
          "name": "numToMint",
          "type": "uint256"
        }
      ],
      "name": "mint",
      "outputs": [],
      "stateMutability": "payable",
      "type": "function"
    },
    {
      "inputs": [],
      "name": "mintLimit",
      "outputs": [
        {
          "internalType": "uint256",
          "name": "",
          "type": "uint256"
        }
      ],
      "stateMutability": "view",
      "type": "function"
    },
    {
      "inputs": [],
      "name": "name",
      "outputs": [
        {
          "internalType": "string",
          "name": "",
          "type": "string"
        }
      ],
      "stateMutability": "view",
      "type": "function"
    },
    {
      "inputs": [],
      "name": "openSale",
      "outputs": [],
      "stateMutability": "nonpayable",
      "type": "function"
    },
    {
      "inputs": [],
      "name": "owner",
      "outputs": [
        {
          "internalType": "address",
          "name": "",
          "type": "address"
        }
      ],
      "stateMutability": "view",
      "type": "function"
    },
    {
      "inputs": [
        {
          "internalType": "uint256",
          "name": "tokenId",
          "type": "uint256"
        }
      ],
      "name": "ownerOf",
      "outputs": [
        {
          "internalType": "address",
          "name": "",
          "type": "address"
        }
      ],
      "stateMutability": "view",
      "type": "function"
    },
    {
      "inputs": [],
      "name": "price",
      "outputs": [
        {
          "internalType": "uint256",
          "name": "",
          "type": "uint256"
        }
      ],
      "stateMutability": "view",
      "type": "function"
    },
    {
      "inputs": [],
      "name": "renounceOwnership",
      "outputs": [],
      "stateMutability": "nonpayable",
      "type": "function"
    },
    {
      "inputs": [
        {
          "internalType": "address",
          "name": "from",
          "type": "address"
        },
        {
          "internalType": "address",
          "name": "to",
          "type": "address"
        },
        {
          "internalType": "uint256",
          "name": "tokenId",
          "type": "uint256"
        }
      ],
      "name": "safeTransferFrom",
      "outputs": [],
      "stateMutability": "nonpayable",
      "type": "function"
    },
    {
      "inputs": [
        {
          "internalType": "address",
          "name": "from",
          "type": "address"
        },
        {
          "internalType": "address",
          "name": "to",
          "type": "address"
        },
        {
          "internalType": "uint256",
          "name": "tokenId",
          "type": "uint256"
        },
        {
          "internalType": "bytes",
          "name": "_data",
          "type": "bytes"
        }
      ],
      "name": "safeTransferFrom",
      "outputs": [],
      "stateMutability": "nonpayable",
      "type": "function"
    },
    {
      "inputs": [],
      "name": "saleIsActive",
      "outputs": [
        {
          "internalType": "bool",
          "name": "",
          "type": "bool"
        }
      ],
      "stateMutability": "view",
      "type": "function"
    },
    {
      "inputs": [
        {
          "internalType": "address",
          "name": "operator",
          "type": "address"
        },
        {
          "internalType": "bool",
          "name": "approved",
          "type": "bool"
        }
      ],
      "name": "setApprovalForAll",
      "outputs": [],
      "stateMutability": "nonpayable",
      "type": "function"
    },
    {
      "inputs": [
        {
          "internalType": "bytes4",
          "name": "interfaceId",
          "type": "bytes4"
        }
      ],
      "name": "supportsInterface",
      "outputs": [
        {
          "internalType": "bool",
          "name": "",
          "type": "bool"
        }
      ],
      "stateMutability": "view",
      "type": "function"
    },
    {
      "inputs": [],
      "name": "symbol",
      "outputs": [
        {
          "internalType": "string",
          "name": "",
          "type": "string"
        }
      ],
      "stateMutability": "view",
      "type": "function"
    },
    {
      "inputs": [
        {
          "internalType": "uint256",
          "name": "tokenId",
          "type": "uint256"
        }
      ],
      "name": "tokenURI",
      "outputs": [
        {
          "internalType": "string",
          "name": "",
          "type": "string"
        }
      ],
      "stateMutability": "view",
      "type": "function"
    },
    {
      "inputs": [],
      "name": "totalTickets",
      "outputs": [
        {
          "internalType": "uint256",
          "name": "",
          "type": "uint256"
        }
      ],
      "stateMutability": "view",
      "type": "function"
    },
    {
      "inputs": [
        {
          "internalType": "address",
          "name": "from",
          "type": "address"
        },
        {
          "internalType": "address",
          "name": "to",
          "type": "address"
        },
        {
          "internalType": "uint256",
          "name": "tokenId",
          "type": "uint256"
        }
      ],
      "name": "transferFrom",
      "outputs": [],
      "stateMutability": "nonpayable",
      "type": "function"
    },
    {
      "inputs": [
        {
          "internalType": "address",
          "name": "newOwner",
          "type": "address"
        }
      ],
      "name": "transferOwnership",
      "outputs": [],
      "stateMutability": "nonpayable",
      "type": "function"
    }
  ],
  "bytecode": "0x6080604052600a600981905580556003600b55600c805460ff191690553480156200002957600080fd5b50604080518082018252600581526409c8ca8d2f60db1b60208083019182528351808501909452600484526309c8ca8b60e31b908401528151919291620000739160009162000122565b5080516200008990600190602084019062000122565b505050620000a6620000a0620000c360201b60201c565b620000c7565b620000bd60086200011960201b6200136c1760201c565b62000205565b3390565b600780546001600160a01b038381166001600160a01b0319831681179093556040519116919082907f8be0079c531659141344cd1fd0a4f28419497f9722a3daafe3b4186f6b6457e090600090a35050565b80546001019055565b8280546200013090620001c8565b90600052602060002090601f0160209004810192826200015457600085556200019f565b82601f106200016f57805160ff19168380011785556200019f565b828001600101855582156200019f579182015b828111156200019f57825182559160200191906001019062000182565b50620001ad929150620001b1565b5090565b5b80821115620001ad5760008155600101620001b2565b600181811c90821680620001dd57607f821691505b60208210811415620001ff57634e487b7160e01b600052602260045260246000fd5b50919050565b612e0080620002156000396000f3fe6080604052600436106101d85760003560e01c80638da5cb5b11610102578063c87b56dd11610095578063e985e9c511610064578063e985e9c514610532578063eb8d24441461057b578063ee55efee14610595578063f2fde38b146105aa57600080fd5b8063c87b56dd146104c7578063cf0b0ca7146104e7578063d9a59e33146104fc578063dd11247e1461051c57600080fd5b8063a0712d68116100d1578063a0712d681461044f578063a22cb46514610462578063b88d4fde14610482578063c7e4623e146104a257600080fd5b80638da5cb5b146103ea57806395d89b4114610408578063996517cf1461041d578063a035b1fe1461043357600080fd5b806323b364ab1161017a5780636352211e116101495780636352211e1461037557806370a0823114610395578063715018a6146103b557806382ac0bb8146103ca57600080fd5b806323b364ab1461030057806323b872dd1461031f5780633cfa7e011461033f57806342842e0e1461035557600080fd5b8063095ea7b3116101b6578063095ea7b31461026c5780630c8b234e1461028e578063167ff46f146102bb5780631acc9b62146102d057600080fd5b806301ffc9a7146101dd57806306fdde0314610212578063081812fc14610234575b600080fd5b3480156101e957600080fd5b506101fd6101f836600461208a565b6105ca565b60405190151581526020015b60405180910390f35b34801561021e57600080fd5b5061022761061c565b6040516102099190612482565b34801561024057600080fd5b5061025461024f3660046120c2565b6106ae565b6040516001600160a01b039091168152602001610209565b34801561027857600080fd5b5061028c610287366004612061565b61073b565b005b34801561029a57600080fd5b506102ae6102a9366004611ecb565b610851565b604051610209919061243e565b3480156102c757600080fd5b5061028c610940565b3480156102dc57600080fd5b506101fd6102eb366004611ecb565b600e6020526000908152604090205460ff1681565b34801561030c57600080fd5b50600a545b604051908152602001610209565b34801561032b57600080fd5b5061028c61033a366004611f17565b610979565b34801561034b57600080fd5b50610311600a5481565b34801561036157600080fd5b5061028c610370366004611f17565b6109aa565b34801561038157600080fd5b506102546103903660046120c2565b6109c5565b3480156103a157600080fd5b506103116103b0366004611ecb565b610a3c565b3480156103c157600080fd5b5061028c610ac3565b3480156103d657600080fd5b506103116103e5366004612061565b610af9565b3480156103f657600080fd5b506007546001600160a01b0316610254565b34801561041457600080fd5b50610227610b2a565b34801561042957600080fd5b50610311600b5481565b34801561043f57600080fd5b5061031167011c37937e08000081565b61028c61045d3660046120c2565b610b39565b34801561046e57600080fd5b5061028c61047d366004612027565b610e58565b34801561048e57600080fd5b5061028c61049d366004611f52565b610f1d565b3480156104ae57600080fd5b50336000908152600e602052604090205460ff166101fd565b3480156104d357600080fd5b506102276104e23660046120c2565b610f55565b3480156104f357600080fd5b50600954610311565b34801561050857600080fd5b5061028c610517366004611ecb565b6110cc565b34801561052857600080fd5b5061031160095481565b34801561053e57600080fd5b506101fd61054d366004611ee5565b6001600160a01b03918216600090815260056020908152604080832093909416825291909152205460ff1690565b34801561058757600080fd5b50600c546101fd9060ff1681565b3480156105a157600080fd5b5061028c61129b565b3480156105b657600080fd5b5061028c6105c5366004611ecb565b6112d1565b60006001600160e01b031982166380ac58cd60e01b14806105fb57506001600160e01b03198216635b5e139f60e01b145b8061061657506301ffc9a760e01b6001600160e01b03198316145b92915050565b60606000805461062b906125fb565b80601f0160208091040260200160405190810160405280929190818152602001828054610657906125fb565b80156106a45780601f10610679576101008083540402835291602001916106a4565b820191906000526020600020905b81548152906001019060200180831161068757829003601f168201915b5050505050905090565b60006106b982611375565b61071f5760405162461bcd60e51b815260206004820152602c60248201527f4552433732313a20617070726f76656420717565727920666f72206e6f6e657860448201526b34b9ba32b73a103a37b5b2b760a11b60648201526084015b60405180910390fd5b506000908152600460205260409020546001600160a01b031690565b6000610746826109c5565b9050806001600160a01b0316836001600160a01b031614156107b45760405162461bcd60e51b815260206004820152602160248201527f4552433732313a20617070726f76616c20746f2063757272656e74206f776e656044820152603960f91b6064820152608401610716565b336001600160a01b03821614806107d057506107d0813361054d565b6108425760405162461bcd60e51b815260206004820152603860248201527f4552433732313a20617070726f76652063616c6c6572206973206e6f74206f7760448201527f6e6572206e6f7220617070726f76656420666f7220616c6c00000000000000006064820152608401610716565b61084c8383611392565b505050565b606060005b6001600160a01b0383166000908152600d60205260409020548110156108d5576001600160a01b0383166000908152600d6020526040902080546108c39190839081106108b357634e487b7160e01b600052603260045260246000fd5b9060005260206000200154611400565b806108cd81612636565b915050610856565b506001600160a01b0382166000908152600d60209081526040918290208054835181840281018401909452808452909183018282801561093457602002820191906000526020600020905b815481526020019060010190808311610920575b50505050509050919050565b6007546001600160a01b0316331461096a5760405162461bcd60e51b8152600401610716906124e7565b600c805460ff19166001179055565b6109833382611445565b61099f5760405162461bcd60e51b81526004016107169061251c565b61084c83838361152b565b61084c83838360405180602001604052806000815250610f1d565b6000818152600260205260408120546001600160a01b0316806106165760405162461bcd60e51b815260206004820152602960248201527f4552433732313a206f776e657220717565727920666f72206e6f6e657869737460448201526832b73a103a37b5b2b760b91b6064820152608401610716565b60006001600160a01b038216610aa75760405162461bcd60e51b815260206004820152602a60248201527f4552433732313a2062616c616e636520717565727920666f7220746865207a65604482015269726f206164647265737360b01b6064820152608401610716565b506001600160a01b031660009081526003602052604090205490565b6007546001600160a01b03163314610aed5760405162461bcd60e51b8152600401610716906124e7565b610af760006116cb565b565b600d6020528160005260406000208181548110610b1557600080fd5b90600052602060002001600091509150505481565b60606001805461062b906125fb565b600c5460ff16610b8b5760405162461bcd60e51b815260206004820152601860248201527f5469636b65747320617265206e6f74206f6e2073616c652100000000000000006044820152606401610716565b6000600a5411610bc95760405162461bcd60e51b8152602060048201526009602482015268536f6c64206f75742160b81b6044820152606401610716565b610bdb67011c37937e08000082612599565b341015610c1c5760405162461bcd60e51b815260206004820152600f60248201526e4e6f7420656e6f756768204554482160881b6044820152606401610716565b600a54811115610c6e5760405162461bcd60e51b815260206004820152601860248201527f4e6f7420656e6f756768207469636b657473206c6566742100000000000000006044820152606401610716565b600b54811115610ccc5760405162461bcd60e51b8152602060048201526024808201527f596f752063616e6e6f74206d696e74206d6f7265207468616e2033207469636b6044820152636574732160e01b6064820152608401610716565b80600a6000828254610cde91906125b8565b90915550600090505b81811015610e5457610cf7611def565b60405180610340016040528061031e81526020016126fe61031e91398152600854610d269061171d565b61171d565b6020828101918252604080518082018252600d81526c1e17ba32bc3a1f1e17b9bb339f60991b81840152818501819052845193519151600094610d6d9490939291016121b1565b60405160208183030381529060405290506000610dbd610d8f610d2160085490565b610d9884611837565b604051602001610da9929190612239565b604051602081830303815290604052611837565b9050600081604051602001610dd291906121f4565b6040516020818303038152906040529050610df533610df060085490565b6119ab565b610e07610e0160085490565b826119c5565b336000908152600d6020526040902060085481546001810183556000928352602090922090910155610e3d600880546001019055565b505050508080610e4c90612636565b915050610ce7565b5050565b6001600160a01b038216331415610eb15760405162461bcd60e51b815260206004820152601960248201527f4552433732313a20617070726f766520746f2063616c6c6572000000000000006044820152606401610716565b3360008181526005602090815260408083206001600160a01b03871680855290835292819020805460ff191686151590811790915590519081529192917f17307eab39ab6107e8899845ad3d59bd9653f200f220920489ca2b5937696c31910160405180910390a35050565b610f273383611445565b610f435760405162461bcd60e51b81526004016107169061251c565b610f4f84848484611a50565b50505050565b6060610f6082611375565b610fc65760405162461bcd60e51b815260206004820152603160248201527f45524337323155524953746f726167653a2055524920717565727920666f72206044820152703737b732bc34b9ba32b73a103a37b5b2b760791b6064820152608401610716565b60008281526006602052604081208054610fdf906125fb565b80601f016020809104026020016040519081016040528092919081815260200182805461100b906125fb565b80156110585780601f1061102d57610100808354040283529160200191611058565b820191906000526020600020905b81548152906001019060200180831161103b57829003601f168201915b50505050509050600061107660408051602081019091526000815290565b9050805160001415611089575092915050565b8151156110bb5780826040516020016110a3929190612182565b60405160208183030381529060405292505050919050565b6110c484611a83565b949350505050565b6001600160a01b0381166000908152600e60209081526040808320805460ff19166001179055600d82528083208054825181850281018501909352808352919290919083018282801561113e57602002820191906000526020600020905b81548152602001906001019080831161112a575b5050505050905060005b815181101561084c57611159611def565b604051806103e001604052806103af8152602001612a1c6103af9139815282516111aa9084908490811061119d57634e487b7160e01b600052603260045260246000fd5b602002602001015161171d565b6020828101918252604080518082018252600d81526c1e17ba32bc3a1f1e17b9bb339f60991b818401528185018190528451935191516000946111f19490939291016121b1565b6040516020818303038152906040529050600061122d611213610d2160085490565b61121c84611837565b604051602001610da9929190612332565b905060008160405160200161124291906121f4565b604051602081830303815290604052905061128486868151811061127657634e487b7160e01b600052603260045260246000fd5b6020026020010151826119c5565b50505050808061129390612636565b915050611148565b6007546001600160a01b031633146112c55760405162461bcd60e51b8152600401610716906124e7565b600c805460ff19169055565b6007546001600160a01b031633146112fb5760405162461bcd60e51b8152600401610716906124e7565b6001600160a01b0381166113605760405162461bcd60e51b815260206004820152602660248201527f4f776e61626c653a206e6577206f776e657220697320746865207a65726f206160448201526564647265737360d01b6064820152608401610716565b611369816116cb565b50565b80546001019055565b6000908152600260205260409020546001600160a01b0316151590565b600081815260046020526040902080546001600160a01b0319166001600160a01b03841690811790915581906113c7826109c5565b6001600160a01b03167f8c5be1e5ebec7d5bd14f71427d1e84f3dd0314c0f7b2291e5b200ac8c7c3b92560405160405180910390a45050565b6113698160405160240161141691815260200190565b60408051601f198184030181529190526020810180516001600160e01b031663f5b1bba960e01b179052611b5b565b600061145082611375565b6114b15760405162461bcd60e51b815260206004820152602c60248201527f4552433732313a206f70657261746f7220717565727920666f72206e6f6e657860448201526b34b9ba32b73a103a37b5b2b760a11b6064820152608401610716565b60006114bc836109c5565b9050806001600160a01b0316846001600160a01b031614806114f75750836001600160a01b03166114ec846106ae565b6001600160a01b0316145b806110c457506001600160a01b0380821660009081526005602090815260408083209388168352929052205460ff166110c4565b826001600160a01b031661153e826109c5565b6001600160a01b0316146115a65760405162461bcd60e51b815260206004820152602960248201527f4552433732313a207472616e73666572206f6620746f6b656e2074686174206960448201526839903737ba1037bbb760b91b6064820152608401610716565b6001600160a01b0382166116085760405162461bcd60e51b8152602060048201526024808201527f4552433732313a207472616e7366657220746f20746865207a65726f206164646044820152637265737360e01b6064820152608401610716565b611613600082611392565b6001600160a01b038316600090815260036020526040812080546001929061163c9084906125b8565b90915550506001600160a01b038216600090815260036020526040812080546001929061166a90849061256d565b909155505060008181526002602052604080822080546001600160a01b0319166001600160a01b0386811691821790925591518493918716917fddf252ad1be2c89b69c2b068fc378daa952ba7f163c4a11628f55a4df523b3ef91a4505050565b600780546001600160a01b038381166001600160a01b0319831681179093556040519116919082907f8be0079c531659141344cd1fd0a4f28419497f9722a3daafe3b4186f6b6457e090600090a35050565b6060816117415750506040805180820190915260018152600360fc1b602082015290565b8160005b811561176b578061175581612636565b91506117649050600a83612585565b9150611745565b60008167ffffffffffffffff81111561179457634e487b7160e01b600052604160045260246000fd5b6040519080825280601f01601f1916602001820160405280156117be576020820181803683370190505b5090505b84156110c4576117d36001836125b8565b91506117e0600a86612651565b6117eb90603061256d565b60f81b81838151811061180e57634e487b7160e01b600052603260045260246000fd5b60200101906001600160f81b031916908160001a905350611830600a86612585565b94506117c2565b805160609080611857575050604080516020810190915260008152919050565b6000600361186683600261256d565b6118709190612585565b61187b906004612599565b9050600061188a82602061256d565b67ffffffffffffffff8111156118b057634e487b7160e01b600052604160045260246000fd5b6040519080825280601f01601f1916602001820160405280156118da576020820181803683370190505b50905060006040518060600160405280604081526020016126be604091399050600181016020830160005b86811015611966576003818a01810151603f601282901c8116860151600c83901c8216870151600684901c831688015192909316870151600891821b60ff94851601821b92841692909201901b91160160e01b835260049092019101611905565b50600386066001811461198057600281146119915761199d565b613d3d60f01b60011983015261199d565b603d60f81b6000198301525b505050918152949350505050565b610e54828260405180602001604052806000815250611b7c565b6119ce82611375565b611a315760405162461bcd60e51b815260206004820152602e60248201527f45524337323155524953746f726167653a2055524920736574206f66206e6f6e60448201526d32bc34b9ba32b73a103a37b5b2b760911b6064820152608401610716565b6000828152600660209081526040909120825161084c92840190611e16565b611a5b84848461152b565b611a6784848484611baf565b610f4f5760405162461bcd60e51b815260040161071690612495565b6060611a8e82611375565b611af25760405162461bcd60e51b815260206004820152602f60248201527f4552433732314d657461646174613a2055524920717565727920666f72206e6f60448201526e3732bc34b9ba32b73a103a37b5b2b760891b6064820152608401610716565b6000611b0960408051602081019091526000815290565b90506000815111611b295760405180602001604052806000815250611b54565b80611b338461171d565b604051602001611b44929190612182565b6040516020818303038152906040525b9392505050565b80516a636f6e736f6c652e6c6f67602083016000808483855afa5050505050565b611b868383611cbc565b611b936000848484611baf565b61084c5760405162461bcd60e51b815260040161071690612495565b60006001600160a01b0384163b15611cb157604051630a85bd0160e11b81526001600160a01b0385169063150b7a0290611bf3903390899088908890600401612401565b602060405180830381600087803b158015611c0d57600080fd5b505af1925050508015611c3d575060408051601f3d908101601f19168201909252611c3a918101906120a6565b60015b611c97573d808015611c6b576040519150601f19603f3d011682016040523d82523d6000602084013e611c70565b606091505b508051611c8f5760405162461bcd60e51b815260040161071690612495565b805181602001fd5b6001600160e01b031916630a85bd0160e11b1490506110c4565b506001949350505050565b6001600160a01b038216611d125760405162461bcd60e51b815260206004820181905260248201527f4552433732313a206d696e7420746f20746865207a65726f20616464726573736044820152606401610716565b611d1b81611375565b15611d685760405162461bcd60e51b815260206004820152601c60248201527f4552433732313a20746f6b656e20616c7265616479206d696e746564000000006044820152606401610716565b6001600160a01b0382166000908152600360205260408120805460019290611d9190849061256d565b909155505060008181526002602052604080822080546001600160a01b0319166001600160a01b03861690811790915590518392907fddf252ad1be2c89b69c2b068fc378daa952ba7f163c4a11628f55a4df523b3ef908290a45050565b60405180606001604052806003905b6060815260200190600190039081611dfe5790505090565b828054611e22906125fb565b90600052602060002090601f016020900481019282611e445760008555611e8a565b82601f10611e5d57805160ff1916838001178555611e8a565b82800160010185558215611e8a579182015b82811115611e8a578251825591602001919060010190611e6f565b50611e96929150611e9a565b5090565b5b80821115611e965760008155600101611e9b565b80356001600160a01b0381168114611ec657600080fd5b919050565b600060208284031215611edc578081fd5b611b5482611eaf565b60008060408385031215611ef7578081fd5b611f0083611eaf565b9150611f0e60208401611eaf565b90509250929050565b600080600060608486031215611f2b578081fd5b611f3484611eaf565b9250611f4260208501611eaf565b9150604084013590509250925092565b60008060008060808587031215611f67578081fd5b611f7085611eaf565b9350611f7e60208601611eaf565b925060408501359150606085013567ffffffffffffffff80821115611fa1578283fd5b818701915087601f830112611fb4578283fd5b813581811115611fc657611fc6612691565b604051601f8201601f19908116603f01168101908382118183101715611fee57611fee612691565b816040528281528a6020848701011115612006578586fd5b82602086016020830137918201602001949094529598949750929550505050565b60008060408385031215612039578182fd5b61204283611eaf565b915060208301358015158114612056578182fd5b809150509250929050565b60008060408385031215612073578182fd5b61207c83611eaf565b946020939093013593505050565b60006020828403121561209b578081fd5b8135611b54816126a7565b6000602082840312156120b7578081fd5b8151611b54816126a7565b6000602082840312156120d3578081fd5b5035919050565b600081518084526120f28160208601602086016125cf565b601f01601f19169290920160200192915050565b7f22696d616765223a2022646174613a696d6167652f7376672b786d6c3b626173815263194d8d0b60e21b602082015260240190565b7f222c20226465736372697074696f6e223a202241204e46542d706f77657265648152730103a34b1b5b2ba34b7339039bcb9ba32b69116160651b602082015260340190565b600083516121948184602088016125cf565b8351908301906121a88183602088016125cf565b01949350505050565b600084516121c38184602089016125cf565b8451908301906121d78183602089016125cf565b84519101906121ea8183602088016125cf565b0195945050505050565b7f646174613a6170706c69636174696f6e2f6a736f6e3b6261736536342c00000081526000825161222c81601d8501602087016125cf565b91909101601d0192915050565b717b20226e616d65223a20224e46546978202360701b815282516000906122678160128501602088016125cf565b61227560128285010161213c565b7f22747261697473223a205b7b202274726169745f74797065223a20224368656381527f6b656420496e222c202276616c7565223a202266616c736522207d2c207b202260208201527f74726169745f74797065223a2022507572636861736564222c202276616c756560408201526d0111d10113a393ab291103eae96160951b60608201529050612309606e8201612106565b9050835161231b8183602088016125cf565b6222207d60e81b9101908152600301949350505050565b717b20226e616d65223a20224e46546978202360701b815282516000906123608160128501602088016125cf565b61236e60128285010161213c565b7f22747261697473223a205b7b202274726169745f74797065223a20224368656381527f6b656420496e222c202276616c7565223a20227472696522207d2c207b20227460208201527f726169745f74797065223a2022507572636861736564222c202276616c75652260408201526c01d10113a393ab291103eae961609d1b60608201529050612309606d8201612106565b6001600160a01b0385811682528416602082015260408101839052608060608201819052600090612434908301846120da565b9695505050505050565b6020808252825182820181905260009190848201906040850190845b818110156124765783518352928401929184019160010161245a565b50909695505050505050565b602081526000611b5460208301846120da565b60208082526032908201527f4552433732313a207472616e7366657220746f206e6f6e20455243373231526560408201527131b2b4bb32b91034b6b83632b6b2b73a32b960711b606082015260800190565b6020808252818101527f4f776e61626c653a2063616c6c6572206973206e6f7420746865206f776e6572604082015260600190565b60208082526031908201527f4552433732313a207472616e736665722063616c6c6572206973206e6f74206f6040820152701ddb995c881b9bdc88185c1c1c9bdd9959607a1b606082015260800190565b6000821982111561258057612580612665565b500190565b6000826125945761259461267b565b500490565b60008160001904831182151516156125b3576125b3612665565b500290565b6000828210156125ca576125ca612665565b500390565b60005b838110156125ea5781810151838201526020016125d2565b83811115610f4f5750506000910152565b600181811c9082168061260f57607f821691505b6020821081141561263057634e487b7160e01b600052602260045260246000fd5b50919050565b600060001982141561264a5761264a612665565b5060010190565b6000826126605761266061267b565b500690565b634e487b7160e01b600052601160045260246000fd5b634e487b7160e01b600052601260045260246000fd5b634e487b7160e01b600052604160045260246000fd5b6001600160e01b03198116811461136957600080fdfe4142434445464748494a4b4c4d4e4f505152535455565758595a6162636465666768696a6b6c6d6e6f707172737475767778797a303132333435363738392b2f3c73766720617269612d68696464656e3d22747275652220666f63757361626c653d2266616c73652220646174612d7072656669783d226661732220646174612d69636f6e3d227469636b65742d616c742220636c6173733d227376672d696e6c696e652d2d66612066612d7469636b65742d616c742066612d772d31382220726f6c653d22696d672220786d6c6e733d22687474703a2f2f7777772e77332e6f72672f323030302f737667222076696577426f783d223020302035373620353132223e3c7374796c653e40666f6e742d66616365207b20666f6e742d66616d696c793a202252616c65776179223b207372633a2075726c282268747470733a2f2f666f6e74732e676f6f676c65617069732e636f6d2f637373323f66616d696c793d52616c6577617922293b207d202e74657874207b20666f6e742d66616d696c793a202252616c65776179222c2073616e732d73657269663b20666f6e742d73697a653a20333270783b207d203c2f7374796c653e3c706174682066696c6c3d22626c61636b2220643d224d31323820313630683332307631393248313238563136307a6d34303020393663302032362e35312032312e343920343820343820343876393663302032362e35312d32312e34392034382d3438203438483438632d32362e353120302d34382d32312e34392d34382d3438762d39366332362e353120302034382d32312e34392034382d3438732d32312e34392d34382d34382d3438762d393663302d32362e35312032312e34392d34382034382d3438683438306332362e353120302034382032312e3439203438203438763936632d32362e353120302d34382032312e34392d34382034387a6d2d34382d31303463302d31332e3235352d31302e3734352d32342d32342d323448313230632d31332e32353520302d32342031302e3734352d32342032347632303863302031332e3235352031302e373435203234203234203234683333366331332e32353520302032342d31302e3734352032342d3234563135327a223e3c2f706174683e3c7465787420783d2231302220793d2234302220636c6173733d2274657874223e3c73766720617269612d68696464656e3d22747275652220666f63757361626c653d2266616c73652220646174612d7072656669783d226661722220646174612d69636f6e3d22636865636b2d636972636c652220636c6173733d227376672d696e6c696e652d2d66612066612d636865636b2d636972636c652066612d772d31362220726f6c653d22696d672220786d6c6e733d22687474703a2f2f7777772e77332e6f72672f323030302f737667222076696577426f783d223020302035313220353132223e3c7374796c653e40666f6e742d66616365207b20666f6e742d66616d696c793a202252616c65776179223b207372633a2075726c282268747470733a2f2f666f6e74732e676f6f676c65617069732e636f6d2f637373323f66616d696c793d52616c6577617922293b207d202e74657874207b20666f6e742d66616d696c793a202252616c65776179222c2073616e732d73657269663b20666f6e742d73697a653a20333270783b207d3c2f7374796c653e3c706174682066696c6c3d22626c61636b2220643d224d3235362038433131392e30333320382038203131392e303333203820323536733131312e303333203234382032343820323438203234382d3131312e303333203234382d323438533339322e39363720382032353620387a6d30203438633131302e3533322030203230302038392e34353120323030203230302030203131302e3533322d38392e343531203230302d323030203230302d3131302e35333220302d3230302d38392e3435312d3230302d32303020302d3131302e3533322038392e3435312d323030203230302d3230306d3134302e323034203133302e3236376c2d32322e3533362d32322e373138632d342e3636372d342e3730352d31322e3236352d342e3733362d31362e39372d2e3036384c3231352e333436203330332e3639376c2d35392e3739322d36302e323737632d342e3636372d342e3730352d31322e3236352d342e3733362d31362e39372d2e3036396c2d32322e3731392032322e353336632d342e37303520342e3636372d342e3733362031322e3236352d2e3036382031362e3937316c39302e3738312039312e35313663342e36363720342e3730352031322e32363520342e3733362031362e39372e3036386c3137322e3538392d3137312e32303463342e3730342d342e36363820342e3733342d31322e3236362e3036372d31362e3937317a223e3c2f706174683e3c7465787420783d2231302220793d2234302220636c6173733d2274657874223ea26469706673582212207f9db3ae780af131dda372061bc8a375eb8c1438c750a547f34f43814334b8e464736f6c63430008040033",
  "linkReferences": {},
  "deployedLinkReferences": {}
}